{
  "_format": "hh-sol-artifact-1",
  "contractName": "VerifyCredential",
  "sourceName": "contracts/CredentialVerifier.sol",
  "abi": [
    {
      "inputs": [
        {
          "internalType": "address",
          "name": "_issueCredentialAddress",
          "type": "address"
        }
      ],
      "stateMutability": "nonpayable",
      "type": "constructor"
    },
    {
      "inputs": [
        {
          "internalType": "bytes32",
          "name": "_credentialId",
          "type": "bytes32"
        }
      ],
      "name": "getIPFSHash",
      "outputs": [
        {
          "internalType": "string",
          "name": "",
          "type": "string"
        }
      ],
      "stateMutability": "view",
      "type": "function"
    },
    {
      "inputs": [
        {
          "internalType": "bytes32",
          "name": "_credentialId",
          "type": "bytes32"
        }
      ],
      "name": "getIssuerDetails",
      "outputs": [
        {
          "components": [
            {
              "internalType": "string",
              "name": "nameOfIssuer",
              "type": "string"
            },
            {
              "internalType": "address",
              "name": "addressOfIssuer",
              "type": "address"
            }
          ],
          "internalType": "struct Issuer",
          "name": "",
          "type": "tuple"
        }
      ],
      "stateMutability": "view",
      "type": "function"
    },
    {
      "inputs": [],
      "name": "issueCredentialContract",
      "outputs": [
        {
          "internalType": "contract IIssueCredential",
          "name": "",
          "type": "address"
        }
      ],
      "stateMutability": "view",
      "type": "function"
    }
  ],
  "bytecode": "0x608060405234801561001057600080fd5b506040516108cc3803806108cc833981810160405281019061003291906100db565b806000806101000a81548173ffffffffffffffffffffffffffffffffffffffff021916908373ffffffffffffffffffffffffffffffffffffffff16021790555050610108565b600080fd5b600073ffffffffffffffffffffffffffffffffffffffff82169050919050565b60006100a88261007d565b9050919050565b6100b88161009d565b81146100c357600080fd5b50565b6000815190506100d5816100af565b92915050565b6000602082840312156100f1576100f0610078565b5b60006100ff848285016100c6565b91505092915050565b6107b5806101176000396000f3fe608060405234801561001057600080fd5b50600436106100415760003560e01c80632ed5ef14146100465780635bdc7a661461007657806377c9c3bd14610094575b600080fd5b610060600480360381019061005b91906102b8565b6100c4565b60405161006d9190610375565b60405180910390f35b61007e61016c565b60405161008b9190610416565b60405180910390f35b6100ae60048036038101906100a991906102b8565b610190565b6040516100bb91906104d9565b60405180910390f35b606060008054906101000a900473ffffffffffffffffffffffffffffffffffffffff1673ffffffffffffffffffffffffffffffffffffffff16632ed5ef14836040518263ffffffff1660e01b815260040161011f919061050a565b600060405180830381865afa15801561013c573d6000803e3d6000fd5b505050506040513d6000823e3d601f19601f82011682018060405250810190610165919061064b565b9050919050565b60008054906101000a900473ffffffffffffffffffffffffffffffffffffffff1681565b61019861023e565b60008054906101000a900473ffffffffffffffffffffffffffffffffffffffff1673ffffffffffffffffffffffffffffffffffffffff166377c9c3bd836040518263ffffffff1660e01b81526004016101f1919061050a565b600060405180830381865afa15801561020e573d6000803e3d6000fd5b505050506040513d6000823e3d601f19601f820116820180604052508101906102379190610736565b9050919050565b604051806040016040528060608152602001600073ffffffffffffffffffffffffffffffffffffffff1681525090565b6000604051905090565b600080fd5b600080fd5b6000819050919050565b61029581610282565b81146102a057600080fd5b50565b6000813590506102b28161028c565b92915050565b6000602082840312156102ce576102cd610278565b5b60006102dc848285016102a3565b91505092915050565b600081519050919050565b600082825260208201905092915050565b60005b8381101561031f578082015181840152602081019050610304565b60008484015250505050565b6000601f19601f8301169050919050565b6000610347826102e5565b61035181856102f0565b9350610361818560208601610301565b61036a8161032b565b840191505092915050565b6000602082019050818103600083015261038f818461033c565b905092915050565b600073ffffffffffffffffffffffffffffffffffffffff82169050919050565b6000819050919050565b60006103dc6103d76103d284610397565b6103b7565b610397565b9050919050565b60006103ee826103c1565b9050919050565b6000610400826103e3565b9050919050565b610410816103f5565b82525050565b600060208201905061042b6000830184610407565b92915050565b600082825260208201905092915050565b600061044d826102e5565b6104578185610431565b9350610467818560208601610301565b6104708161032b565b840191505092915050565b600061048682610397565b9050919050565b6104968161047b565b82525050565b600060408301600083015184820360008601526104b98282610442565b91505060208301516104ce602086018261048d565b508091505092915050565b600060208201905081810360008301526104f3818461049c565b905092915050565b61050481610282565b82525050565b600060208201905061051f60008301846104fb565b92915050565b600080fd5b600080fd5b7f4e487b7100000000000000000000000000000000000000000000000000000000600052604160045260246000fd5b6105678261032b565b810181811067ffffffffffffffff821117156105865761058561052f565b5b80604052505050565b600061059961026e565b90506105a5828261055e565b919050565b600067ffffffffffffffff8211156105c5576105c461052f565b5b6105ce8261032b565b9050602081019050919050565b60006105ee6105e9846105aa565b61058f565b90508281526020810184848401111561060a5761060961052a565b5b610615848285610301565b509392505050565b600082601f83011261063257610631610525565b5b81516106428482602086016105db565b91505092915050565b60006020828403121561066157610660610278565b5b600082015167ffffffffffffffff81111561067f5761067e61027d565b5b61068b8482850161061d565b91505092915050565b600080fd5b600080fd5b6106a78161047b565b81146106b257600080fd5b50565b6000815190506106c48161069e565b92915050565b6000604082840312156106e0576106df610694565b5b6106ea604061058f565b9050600082015167ffffffffffffffff81111561070a57610709610699565b5b6107168482850161061d565b600083015250602061072a848285016106b5565b60208301525092915050565b60006020828403121561074c5761074b610278565b5b600082015167ffffffffffffffff81111561076a5761076961027d565b5b610776848285016106ca565b9150509291505056fea2646970667358221220b556cc9fbda4fd401e9003c01e6d2919cc55ee4b9ab18f84da08081aef1e510f64736f6c63430008180033",
  "linkReferences": {},
  "deployedLinkReferences": {}
}