{
  "_format": "hh-sol-artifact-1",
  "contractName": "IssueCredential",
  "sourceName": "contracts/CredentialIssuer.sol",
  "abi": [
    {
      "anonymous": false,
      "inputs": [
        {
          "indexed": false,
          "internalType": "bytes32",
          "name": "credentalId",
          "type": "bytes32"
        },
        {
          "components": [
            {
              "internalType": "string",
              "name": "nameOfIssuer",
              "type": "string"
            },
            {
              "internalType": "address",
              "name": "addressOfIssuer",
              "type": "address"
            }
          ],
          "indexed": false,
          "internalType": "struct Issuer",
          "name": "issuerDetails",
          "type": "tuple"
        },
        {
          "indexed": false,
          "internalType": "string",
          "name": "recipient",
          "type": "string"
        },
        {
          "indexed": false,
          "internalType": "uint256",
          "name": "timeOfIssue",
          "type": "uint256"
        }
      ],
      "name": "CredentialIssuedEvent",
      "type": "event"
    },
    {
      "stateMutability": "payable",
      "type": "fallback"
    },
    {
      "inputs": [
        {
          "internalType": "address",
          "name": "",
          "type": "address"
        }
      ],
      "name": "authorizedIssuers",
      "outputs": [
        {
          "internalType": "bool",
          "name": "",
          "type": "bool"
        }
      ],
      "stateMutability": "view",
      "type": "function"
    },
    {
      "inputs": [
        {
          "internalType": "address",
          "name": "",
          "type": "address"
        },
        {
          "internalType": "uint256",
          "name": "",
          "type": "uint256"
        }
      ],
      "name": "credentialsByIssuer",
      "outputs": [
        {
          "internalType": "bytes32",
          "name": "credentialId",
          "type": "bytes32"
        },
        {
          "components": [
            {
              "internalType": "string",
              "name": "nameOfIssuer",
              "type": "string"
            },
            {
              "internalType": "address",
              "name": "addressOfIssuer",
              "type": "address"
            }
          ],
          "internalType": "struct Issuer",
          "name": "issuerDetails",
          "type": "tuple"
        },
        {
          "internalType": "string",
          "name": "recipient",
          "type": "string"
        },
        {
          "internalType": "string",
          "name": "ipfsHash",
          "type": "string"
        },
        {
          "internalType": "bool",
          "name": "isIssued",
          "type": "bool"
        }
      ],
      "stateMutability": "view",
      "type": "function"
    },
    {
      "inputs": [
        {
          "internalType": "bytes32",
          "name": "_credentialId",
          "type": "bytes32"
        }
      ],
      "name": "getIPFSHash",
      "outputs": [
        {
          "internalType": "string",
          "name": "",
          "type": "string"
        }
      ],
      "stateMutability": "view",
      "type": "function"
    },
    {
      "inputs": [
        {
          "internalType": "bytes32",
          "name": "_credentialId",
          "type": "bytes32"
        }
      ],
      "name": "getIssuerDetails",
      "outputs": [
        {
          "components": [
            {
              "internalType": "string",
              "name": "nameOfIssuer",
              "type": "string"
            },
            {
              "internalType": "address",
              "name": "addressOfIssuer",
              "type": "address"
            }
          ],
          "internalType": "struct Issuer",
          "name": "",
          "type": "tuple"
        }
      ],
      "stateMutability": "view",
      "type": "function"
    },
    {
      "inputs": [
        {
          "internalType": "bytes32",
          "name": "",
          "type": "bytes32"
        }
      ],
      "name": "ipfsHashes",
      "outputs": [
        {
          "internalType": "string",
          "name": "",
          "type": "string"
        }
      ],
      "stateMutability": "view",
      "type": "function"
    },
    {
      "inputs": [
        {
          "internalType": "bytes32",
          "name": "",
          "type": "bytes32"
        }
      ],
      "name": "issuerLookUp",
      "outputs": [
        {
          "internalType": "string",
          "name": "nameOfIssuer",
          "type": "string"
        },
        {
          "internalType": "address",
          "name": "addressOfIssuer",
          "type": "address"
        }
      ],
      "stateMutability": "view",
      "type": "function"
    },
    {
      "inputs": [
        {
          "internalType": "string",
          "name": "_nameOfIssuer",
          "type": "string"
        },
        {
          "internalType": "string",
          "name": "_studentId",
          "type": "string"
        },
        {
          "internalType": "string",
          "name": "_ipfsHash",
          "type": "string"
        }
      ],
      "name": "storeCredential",
      "outputs": [
        {
          "internalType": "bytes32",
          "name": "",
          "type": "bytes32"
        }
      ],
      "stateMutability": "nonpayable",
      "type": "function"
    },
    {
      "inputs": [],
      "name": "viewAllIssuedCredentials",
      "outputs": [
        {
          "components": [
            {
              "internalType": "bytes32",
              "name": "credentialId",
              "type": "bytes32"
            },
            {
              "components": [
                {
                  "internalType": "string",
                  "name": "nameOfIssuer",
                  "type": "string"
                },
                {
                  "internalType": "address",
                  "name": "addressOfIssuer",
                  "type": "address"
                }
              ],
              "internalType": "struct Issuer",
              "name": "issuerDetails",
              "type": "tuple"
            },
            {
              "internalType": "string",
              "name": "recipient",
              "type": "string"
            },
            {
              "internalType": "string",
              "name": "ipfsHash",
              "type": "string"
            },
            {
              "internalType": "bool",
              "name": "isIssued",
              "type": "bool"
            }
          ],
          "internalType": "struct IssueCredential.Credential[]",
          "name": "",
          "type": "tuple[]"
        }
      ],
      "stateMutability": "view",
      "type": "function"
    },
    {
      "inputs": [
        {
          "internalType": "bytes32",
          "name": "_credentialId",
          "type": "bytes32"
        }
      ],
      "name": "viewIssuedCredential",
      "outputs": [
        {
          "components": [
            {
              "internalType": "bytes32",
              "name": "credentialId",
              "type": "bytes32"
            },
            {
              "components": [
                {
                  "internalType": "string",
                  "name": "nameOfIssuer",
                  "type": "string"
                },
                {
                  "internalType": "address",
                  "name": "addressOfIssuer",
                  "type": "address"
                }
              ],
              "internalType": "struct Issuer",
              "name": "issuerDetails",
              "type": "tuple"
            },
            {
              "internalType": "string",
              "name": "recipient",
              "type": "string"
            },
            {
              "internalType": "string",
              "name": "ipfsHash",
              "type": "string"
            },
            {
              "internalType": "bool",
              "name": "isIssued",
              "type": "bool"
            }
          ],
          "internalType": "struct IssueCredential.Credential",
          "name": "",
          "type": "tuple"
        }
      ],
      "stateMutability": "view",
      "type": "function"
    },
    {
      "stateMutability": "payable",
      "type": "receive"
    }
  ],
  "bytecode": "0x608060405234801561001057600080fd5b506120c4806100206000396000f3fe60806040526004361061008a5760003560e01c80636eaf6453116100595780636eaf64531461018b57806377c9c3bd146101c957806388e2ad7114610206578063ab90becb14610231578063f731fa0f1461026e57610091565b80631e1052911461009357806322aa9e97146100d05780632ed5ef141461010d5780634fd04d221461014a57610091565b3661009157005b005b34801561009f57600080fd5b506100ba60048036038101906100b5919061131e565b6102ab565b6040516100c791906113db565b60405180910390f35b3480156100dc57600080fd5b506100f760048036038101906100f29190611532565b61034b565b60405161010491906115e8565b60405180910390f35b34801561011957600080fd5b50610134600480360381019061012f919061131e565b6106be565b60405161014191906113db565b60405180910390f35b34801561015657600080fd5b50610171600480360381019061016c9190611697565b610763565b604051610182959493929190611788565b60405180910390f35b34801561019757600080fd5b506101b260048036038101906101ad919061131e565b6109c5565b6040516101c09291906117ff565b60405180910390f35b3480156101d557600080fd5b506101f060048036038101906101eb919061131e565b610a91565b6040516101fd919061182f565b60405180910390f35b34801561021257600080fd5b5061021b610ba6565b60405161022891906119f2565b60405180910390f35b34801561023d57600080fd5b506102586004803603810190610253919061131e565b610e87565b6040516102659190611a98565b60405180910390f35b34801561027a57600080fd5b5061029560048036038101906102909190611aba565b61124a565b6040516102a29190611ae7565b60405180910390f35b600260205280600052604060002060009150905080546102ca90611b31565b80601f01602080910402602001604051908101604052809291908181526020018280546102f690611b31565b80156103435780601f1061031857610100808354040283529160200191610343565b820191906000526020600020905b81548152906001019060200180831161032657829003601f168201915b505050505081565b600080845111610390576040517f08c379a000000000000000000000000000000000000000000000000000000000815260040161038790611bae565b60405180910390fd5b60008351116103d4576040517f08c379a00000000000000000000000000000000000000000000000000000000081526004016103cb90611c1a565b60405180910390fd5b6000825111610418576040517f08c379a000000000000000000000000000000000000000000000000000000000815260040161040f90611c86565b60405180910390fd5b600084848460405160200161042f93929190611ce2565b604051602081830303815290604052805190602001209050600060405180604001604052808781526020013373ffffffffffffffffffffffffffffffffffffffff16815250905060006040518060a0016040528084815260200183815260200187815260200186815260200160011515815250905060004290507fa9bac16c5dafcc86d75d6ed302c045921454f35a28042c50a5f014aa9685ea9b826000015183602001518460400151846040516104ea9493929190611d22565b60405180910390a1600160003373ffffffffffffffffffffffffffffffffffffffff1673ffffffffffffffffffffffffffffffffffffffff1681526020019081526020016000208290806001815401808255809150506001900390600052602060002090600602016000909190919091506000820151816000015560208201518160010160008201518160000190816105839190611f21565b5060208201518160010160006101000a81548173ffffffffffffffffffffffffffffffffffffffff021916908373ffffffffffffffffffffffffffffffffffffffff160217905550505060408201518160030190816105e29190611f21565b5060608201518160040190816105f89190611f21565b5060808201518160050160006101000a81548160ff02191690831515021790555050508560026000868152602001908152602001600020908161063b9190611f21565b50826003600086815260200190815260200160002060008201518160000190816106659190611f21565b5060208201518160010160006101000a81548173ffffffffffffffffffffffffffffffffffffffff021916908373ffffffffffffffffffffffffffffffffffffffff160217905550905050839450505050509392505050565b60606002600083815260200190815260200160002080546106de90611b31565b80601f016020809104026020016040519081016040528092919081815260200182805461070a90611b31565b80156107575780601f1061072c57610100808354040283529160200191610757565b820191906000526020600020905b81548152906001019060200180831161073a57829003601f168201915b50505050509050919050565b6001602052816000526040600020818154811061077f57600080fd5b906000526020600020906006020160009150915050806000015490806001016040518060400160405290816000820180546107b990611b31565b80601f01602080910402602001604051908101604052809291908181526020018280546107e590611b31565b80156108325780601f1061080757610100808354040283529160200191610832565b820191906000526020600020905b81548152906001019060200180831161081557829003601f168201915b505050505081526020016001820160009054906101000a900473ffffffffffffffffffffffffffffffffffffffff1673ffffffffffffffffffffffffffffffffffffffff1673ffffffffffffffffffffffffffffffffffffffff1681525050908060030180546108a190611b31565b80601f01602080910402602001604051908101604052809291908181526020018280546108cd90611b31565b801561091a5780601f106108ef5761010080835404028352916020019161091a565b820191906000526020600020905b8154815290600101906020018083116108fd57829003601f168201915b50505050509080600401805461092f90611b31565b80601f016020809104026020016040519081016040528092919081815260200182805461095b90611b31565b80156109a85780601f1061097d576101008083540402835291602001916109a8565b820191906000526020600020905b81548152906001019060200180831161098b57829003601f168201915b5050505050908060050160009054906101000a900460ff16905085565b60036020528060005260406000206000915090508060000180546109e890611b31565b80601f0160208091040260200160405190810160405280929190818152602001828054610a1490611b31565b8015610a615780601f10610a3657610100808354040283529160200191610a61565b820191906000526020600020905b815481529060010190602001808311610a4457829003601f168201915b5050505050908060010160009054906101000a900473ffffffffffffffffffffffffffffffffffffffff16905082565b610a9961126a565b60036000838152602001908152602001600020604051806040016040529081600082018054610ac790611b31565b80601f0160208091040260200160405190810160405280929190818152602001828054610af390611b31565b8015610b405780601f10610b1557610100808354040283529160200191610b40565b820191906000526020600020905b815481529060010190602001808311610b2357829003601f168201915b505050505081526020016001820160009054906101000a900473ffffffffffffffffffffffffffffffffffffffff1673ffffffffffffffffffffffffffffffffffffffff1673ffffffffffffffffffffffffffffffffffffffff16815250509050919050565b6060600160003373ffffffffffffffffffffffffffffffffffffffff1673ffffffffffffffffffffffffffffffffffffffff168152602001908152602001600020805480602002602001604051908101604052809291908181526020016000905b82821015610e7e57838290600052602060002090600602016040518060a00160405290816000820154815260200160018201604051806040016040529081600082018054610c5490611b31565b80601f0160208091040260200160405190810160405280929190818152602001828054610c8090611b31565b8015610ccd5780601f10610ca257610100808354040283529160200191610ccd565b820191906000526020600020905b815481529060010190602001808311610cb057829003601f168201915b505050505081526020016001820160009054906101000a900473ffffffffffffffffffffffffffffffffffffffff1673ffffffffffffffffffffffffffffffffffffffff1673ffffffffffffffffffffffffffffffffffffffff16815250508152602001600382018054610d4090611b31565b80601f0160208091040260200160405190810160405280929190818152602001828054610d6c90611b31565b8015610db95780601f10610d8e57610100808354040283529160200191610db9565b820191906000526020600020905b815481529060010190602001808311610d9c57829003601f168201915b50505050508152602001600482018054610dd290611b31565b80601f0160208091040260200160405190810160405280929190818152602001828054610dfe90611b31565b8015610e4b5780601f10610e2057610100808354040283529160200191610e4b565b820191906000526020600020905b815481529060010190602001808311610e2e57829003601f168201915b505050505081526020016005820160009054906101000a900460ff16151515158152505081526020019060010190610c07565b50505050905090565b610e8f61129a565b60005b600160003373ffffffffffffffffffffffffffffffffffffffff1673ffffffffffffffffffffffffffffffffffffffff168152602001908152602001600020805490508110156112095782600160003373ffffffffffffffffffffffffffffffffffffffff1673ffffffffffffffffffffffffffffffffffffffff1681526020019081526020016000208281548110610f2e57610f2d611ff3565b5b906000526020600020906006020160000154036111fc57600160003373ffffffffffffffffffffffffffffffffffffffff1673ffffffffffffffffffffffffffffffffffffffff1681526020019081526020016000208181548110610f9657610f95611ff3565b5b90600052602060002090600602016040518060a00160405290816000820154815260200160018201604051806040016040529081600082018054610fd990611b31565b80601f016020809104026020016040519081016040528092919081815260200182805461100590611b31565b80156110525780601f1061102757610100808354040283529160200191611052565b820191906000526020600020905b81548152906001019060200180831161103557829003601f168201915b505050505081526020016001820160009054906101000a900473ffffffffffffffffffffffffffffffffffffffff1673ffffffffffffffffffffffffffffffffffffffff1673ffffffffffffffffffffffffffffffffffffffff168152505081526020016003820180546110c590611b31565b80601f01602080910402602001604051908101604052809291908181526020018280546110f190611b31565b801561113e5780601f106111135761010080835404028352916020019161113e565b820191906000526020600020905b81548152906001019060200180831161112157829003601f168201915b5050505050815260200160048201805461115790611b31565b80601f016020809104026020016040519081016040528092919081815260200182805461118390611b31565b80156111d05780601f106111a5576101008083540402835291602001916111d0565b820191906000526020600020905b8154815290600101906020018083116111b357829003601f168201915b505050505081526020016005820160009054906101000a900460ff161515151581525050915050611245565b8080600101915050610e92565b506040517f08c379a000000000000000000000000000000000000000000000000000000000815260040161123c9061206e565b60405180910390fd5b919050565b60006020528060005260406000206000915054906101000a900460ff1681565b604051806040016040528060608152602001600073ffffffffffffffffffffffffffffffffffffffff1681525090565b6040518060a00160405280600080191681526020016112b761126a565b815260200160608152602001606081526020016000151581525090565b6000604051905090565b600080fd5b600080fd5b6000819050919050565b6112fb816112e8565b811461130657600080fd5b50565b600081359050611318816112f2565b92915050565b600060208284031215611334576113336112de565b5b600061134284828501611309565b91505092915050565b600081519050919050565b600082825260208201905092915050565b60005b8381101561138557808201518184015260208101905061136a565b60008484015250505050565b6000601f19601f8301169050919050565b60006113ad8261134b565b6113b78185611356565b93506113c7818560208601611367565b6113d081611391565b840191505092915050565b600060208201905081810360008301526113f581846113a2565b905092915050565b600080fd5b600080fd5b7f4e487b7100000000000000000000000000000000000000000000000000000000600052604160045260246000fd5b61143f82611391565b810181811067ffffffffffffffff8211171561145e5761145d611407565b5b80604052505050565b60006114716112d4565b905061147d8282611436565b919050565b600067ffffffffffffffff82111561149d5761149c611407565b5b6114a682611391565b9050602081019050919050565b82818337600083830152505050565b60006114d56114d084611482565b611467565b9050828152602081018484840111156114f1576114f0611402565b5b6114fc8482856114b3565b509392505050565b600082601f830112611519576115186113fd565b5b81356115298482602086016114c2565b91505092915050565b60008060006060848603121561154b5761154a6112de565b5b600084013567ffffffffffffffff811115611569576115686112e3565b5b61157586828701611504565b935050602084013567ffffffffffffffff811115611596576115956112e3565b5b6115a286828701611504565b925050604084013567ffffffffffffffff8111156115c3576115c26112e3565b5b6115cf86828701611504565b9150509250925092565b6115e2816112e8565b82525050565b60006020820190506115fd60008301846115d9565b92915050565b600073ffffffffffffffffffffffffffffffffffffffff82169050919050565b600061162e82611603565b9050919050565b61163e81611623565b811461164957600080fd5b50565b60008135905061165b81611635565b92915050565b6000819050919050565b61167481611661565b811461167f57600080fd5b50565b6000813590506116918161166b565b92915050565b600080604083850312156116ae576116ad6112de565b5b60006116bc8582860161164c565b92505060206116cd85828601611682565b9150509250929050565b600082825260208201905092915050565b60006116f38261134b565b6116fd81856116d7565b935061170d818560208601611367565b61171681611391565b840191505092915050565b61172a81611623565b82525050565b6000604083016000830151848203600086015261174d82826116e8565b91505060208301516117626020860182611721565b508091505092915050565b60008115159050919050565b6117828161176d565b82525050565b600060a08201905061179d60008301886115d9565b81810360208301526117af8187611730565b905081810360408301526117c381866113a2565b905081810360608301526117d781856113a2565b90506117e66080830184611779565b9695505050505050565b6117f981611623565b82525050565b6000604082019050818103600083015261181981856113a2565b905061182860208301846117f0565b9392505050565b600060208201905081810360008301526118498184611730565b905092915050565b600081519050919050565b600082825260208201905092915050565b6000819050602082019050919050565b611886816112e8565b82525050565b600060408301600083015184820360008601526118a982826116e8565b91505060208301516118be6020860182611721565b508091505092915050565b6118d28161176d565b82525050565b600060a0830160008301516118f0600086018261187d565b5060208301518482036020860152611908828261188c565b9150506040830151848203604086015261192282826116e8565b9150506060830151848203606086015261193c82826116e8565b915050608083015161195160808601826118c9565b508091505092915050565b600061196883836118d8565b905092915050565b6000602082019050919050565b600061198882611851565b611992818561185c565b9350836020820285016119a48561186d565b8060005b858110156119e057848403895281516119c1858261195c565b94506119cc83611970565b925060208a019950506001810190506119a8565b50829750879550505050505092915050565b60006020820190508181036000830152611a0c818461197d565b905092915050565b600060a083016000830151611a2c600086018261187d565b5060208301518482036020860152611a44828261188c565b91505060408301518482036040860152611a5e82826116e8565b91505060608301518482036060860152611a7882826116e8565b9150506080830151611a8d60808601826118c9565b508091505092915050565b60006020820190508181036000830152611ab28184611a14565b905092915050565b600060208284031215611ad057611acf6112de565b5b6000611ade8482850161164c565b91505092915050565b6000602082019050611afc6000830184611779565b92915050565b7f4e487b7100000000000000000000000000000000000000000000000000000000600052602260045260246000fd5b60006002820490506001821680611b4957607f821691505b602082108103611b5c57611b5b611b02565b5b50919050565b7f497373756572206e616d652063616e6e6f7420626520656d7074790000000000600082015250565b6000611b98601b83611356565b9150611ba382611b62565b602082019050919050565b60006020820190508181036000830152611bc781611b8b565b9050919050565b7f53747564656e742049442063616e6e6f7420626520656d707479000000000000600082015250565b6000611c04601a83611356565b9150611c0f82611bce565b602082019050919050565b60006020820190508181036000830152611c3381611bf7565b9050919050565b7f4950465320686173682063616e6e6f7420626520656d70747900000000000000600082015250565b6000611c70601983611356565b9150611c7b82611c3a565b602082019050919050565b60006020820190508181036000830152611c9f81611c63565b9050919050565b600081905092915050565b6000611cbc8261134b565b611cc68185611ca6565b9350611cd6818560208601611367565b80840191505092915050565b6000611cee8286611cb1565b9150611cfa8285611cb1565b9150611d068284611cb1565b9150819050949350505050565b611d1c81611661565b82525050565b6000608082019050611d3760008301876115d9565b8181036020830152611d498186611730565b90508181036040830152611d5d81856113a2565b9050611d6c6060830184611d13565b95945050505050565b60008190508160005260206000209050919050565b60006020601f8301049050919050565b600082821b905092915050565b600060088302611dd77fffffffffffffffffffffffffffffffffffffffffffffffffffffffffffffffff82611d9a565b611de18683611d9a565b95508019841693508086168417925050509392505050565b6000819050919050565b6000611e1e611e19611e1484611661565b611df9565b611661565b9050919050565b6000819050919050565b611e3883611e03565b611e4c611e4482611e25565b848454611da7565b825550505050565b600090565b611e61611e54565b611e6c818484611e2f565b505050565b5b81811015611e9057611e85600082611e59565b600181019050611e72565b5050565b601f821115611ed557611ea681611d75565b611eaf84611d8a565b81016020851015611ebe578190505b611ed2611eca85611d8a565b830182611e71565b50505b505050565b600082821c905092915050565b6000611ef860001984600802611eda565b1980831691505092915050565b6000611f118383611ee7565b9150826002028217905092915050565b611f2a8261134b565b67ffffffffffffffff811115611f4357611f42611407565b5b611f4d8254611b31565b611f58828285611e94565b600060209050601f831160018114611f8b5760008415611f79578287015190505b611f838582611f05565b865550611feb565b601f198416611f9986611d75565b60005b82811015611fc157848901518255600182019150602085019450602081019050611f9c565b86831015611fde5784890151611fda601f891682611ee7565b8355505b6001600288020188555050505b505050505050565b7f4e487b7100000000000000000000000000000000000000000000000000000000600052603260045260246000fd5b7f43726564656e7469616c206e6f7420666f756e64000000000000000000000000600082015250565b6000612058601483611356565b915061206382612022565b602082019050919050565b600060208201905081810360008301526120878161204b565b905091905056fea264697066735822122029ae49b88e6b0a5adac13be9b2b74335e6f472dc9dcd812064d74e65784b919164736f6c63430008180033",
  "linkReferences": {},
  "deployedLinkReferences": {}
}