{
  "_format": "hh-sol-artifact-1",
  "contractName": "IssueCredential",
  "sourceName": "contracts/CredentialIssuer.sol",
  "abi": [
    {
      "anonymous": false,
      "inputs": [
        {
          "indexed": false,
          "internalType": "bytes32",
          "name": "credentalId",
          "type": "bytes32"
        },
        {
          "components": [
            {
              "internalType": "string",
              "name": "nameOfIssuer",
              "type": "string"
            },
            {
              "internalType": "address",
              "name": "addressOfIssuer",
              "type": "address"
            }
          ],
          "indexed": false,
          "internalType": "struct Issuer",
          "name": "issuerDetails",
          "type": "tuple"
        },
        {
          "indexed": false,
          "internalType": "string",
          "name": "recipient",
          "type": "string"
        },
        {
          "indexed": false,
          "internalType": "uint256",
          "name": "timeOfIssue",
          "type": "uint256"
        }
      ],
      "name": "CredentialIssuedEvent",
      "type": "event"
    },
    {
      "stateMutability": "payable",
      "type": "fallback"
    },
    {
      "inputs": [
        {
          "internalType": "address",
          "name": "",
          "type": "address"
        }
      ],
      "name": "authorizedIssuers",
      "outputs": [
        {
          "internalType": "bool",
          "name": "",
          "type": "bool"
        }
      ],
      "stateMutability": "view",
      "type": "function"
    },
    {
      "inputs": [
        {
          "internalType": "address",
          "name": "",
          "type": "address"
        },
        {
          "internalType": "uint256",
          "name": "",
          "type": "uint256"
        }
      ],
      "name": "credentialsByIssuer",
      "outputs": [
        {
          "internalType": "bytes32",
          "name": "credentialId",
          "type": "bytes32"
        },
        {
          "components": [
            {
              "internalType": "string",
              "name": "nameOfIssuer",
              "type": "string"
            },
            {
              "internalType": "address",
              "name": "addressOfIssuer",
              "type": "address"
            }
          ],
          "internalType": "struct Issuer",
          "name": "issuerDetails",
          "type": "tuple"
        },
        {
          "internalType": "string",
          "name": "recipient",
          "type": "string"
        },
        {
          "internalType": "string",
          "name": "ipfsHash",
          "type": "string"
        },
        {
          "internalType": "bool",
          "name": "isIssued",
          "type": "bool"
        }
      ],
      "stateMutability": "view",
      "type": "function"
    },
    {
      "inputs": [
        {
          "internalType": "bytes32",
          "name": "_credentialId",
          "type": "bytes32"
        }
      ],
      "name": "getIPFSHash",
      "outputs": [
        {
          "internalType": "string",
          "name": "",
          "type": "string"
        }
      ],
      "stateMutability": "view",
      "type": "function"
    },
    {
      "inputs": [
        {
          "internalType": "bytes32",
          "name": "_credentialId",
          "type": "bytes32"
        }
      ],
      "name": "getIssuerDetails",
      "outputs": [
        {
          "components": [
            {
              "internalType": "string",
              "name": "nameOfIssuer",
              "type": "string"
            },
            {
              "internalType": "address",
              "name": "addressOfIssuer",
              "type": "address"
            }
          ],
          "internalType": "struct Issuer",
          "name": "",
          "type": "tuple"
        }
      ],
      "stateMutability": "view",
      "type": "function"
    },
    {
      "inputs": [
        {
          "internalType": "bytes32",
          "name": "",
          "type": "bytes32"
        }
      ],
      "name": "ipfsHashes",
      "outputs": [
        {
          "internalType": "string",
          "name": "",
          "type": "string"
        }
      ],
      "stateMutability": "view",
      "type": "function"
    },
    {
      "inputs": [
        {
          "internalType": "bytes32",
          "name": "",
          "type": "bytes32"
        }
      ],
      "name": "issuerLookUp",
      "outputs": [
        {
          "internalType": "string",
          "name": "nameOfIssuer",
          "type": "string"
        },
        {
          "internalType": "address",
          "name": "addressOfIssuer",
          "type": "address"
        }
      ],
      "stateMutability": "view",
      "type": "function"
    },
    {
      "inputs": [
        {
          "internalType": "bytes32",
          "name": "credentialId",
          "type": "bytes32"
        },
        {
          "internalType": "string",
          "name": "ipfsHash",
          "type": "string"
        }
      ],
      "name": "setIPFSHash",
      "outputs": [],
      "stateMutability": "nonpayable",
      "type": "function"
    },
    {
      "inputs": [
        {
          "internalType": "bytes32",
          "name": "credentialId",
          "type": "bytes32"
        },
        {
          "internalType": "string",
          "name": "nameOfIssuer",
          "type": "string"
        },
        {
          "internalType": "address",
          "name": "addressOfIssuer",
          "type": "address"
        }
      ],
      "name": "setIssuerDetails",
      "outputs": [],
      "stateMutability": "nonpayable",
      "type": "function"
    },
    {
      "inputs": [
        {
          "internalType": "string",
          "name": "_nameOfIssuer",
          "type": "string"
        },
        {
          "internalType": "string",
          "name": "_studentId",
          "type": "string"
        },
        {
          "internalType": "string",
          "name": "_ipfsHash",
          "type": "string"
        }
      ],
      "name": "storeCredential",
      "outputs": [
        {
          "internalType": "bytes32",
          "name": "",
          "type": "bytes32"
        }
      ],
      "stateMutability": "nonpayable",
      "type": "function"
    },
    {
      "inputs": [],
      "name": "viewAllIssuedCredentials",
      "outputs": [
        {
          "components": [
            {
              "internalType": "bytes32",
              "name": "credentialId",
              "type": "bytes32"
            },
            {
              "components": [
                {
                  "internalType": "string",
                  "name": "nameOfIssuer",
                  "type": "string"
                },
                {
                  "internalType": "address",
                  "name": "addressOfIssuer",
                  "type": "address"
                }
              ],
              "internalType": "struct Issuer",
              "name": "issuerDetails",
              "type": "tuple"
            },
            {
              "internalType": "string",
              "name": "recipient",
              "type": "string"
            },
            {
              "internalType": "string",
              "name": "ipfsHash",
              "type": "string"
            },
            {
              "internalType": "bool",
              "name": "isIssued",
              "type": "bool"
            }
          ],
          "internalType": "struct IssueCredential.Credential[]",
          "name": "",
          "type": "tuple[]"
        }
      ],
      "stateMutability": "view",
      "type": "function"
    },
    {
      "inputs": [
        {
          "internalType": "bytes32",
          "name": "_credentialId",
          "type": "bytes32"
        }
      ],
      "name": "viewIssuedCredential",
      "outputs": [
        {
          "components": [
            {
              "internalType": "bytes32",
              "name": "credentialId",
              "type": "bytes32"
            },
            {
              "components": [
                {
                  "internalType": "string",
                  "name": "nameOfIssuer",
                  "type": "string"
                },
                {
                  "internalType": "address",
                  "name": "addressOfIssuer",
                  "type": "address"
                }
              ],
              "internalType": "struct Issuer",
              "name": "issuerDetails",
              "type": "tuple"
            },
            {
              "internalType": "string",
              "name": "recipient",
              "type": "string"
            },
            {
              "internalType": "string",
              "name": "ipfsHash",
              "type": "string"
            },
            {
              "internalType": "bool",
              "name": "isIssued",
              "type": "bool"
            }
          ],
          "internalType": "struct IssueCredential.Credential",
          "name": "",
          "type": "tuple"
        }
      ],
      "stateMutability": "view",
      "type": "function"
    },
    {
      "stateMutability": "payable",
      "type": "receive"
    }
  ],
  "bytecode": "0x608060405234801561001057600080fd5b506122df806100206000396000f3fe6080604052600436106100a05760003560e01c80636eaf6453116100645780636eaf6453146101ca57806377c9c3bd1461020857806388e2ad7114610245578063ab90becb14610270578063db16dfe2146102ad578063f731fa0f146102d6576100a7565b80631e105291146100a957806322aa9e97146100e65780632ed5ef14146101235780634fd04d22146101605780636bfc8bb5146101a1576100a7565b366100a757005b005b3480156100b557600080fd5b506100d060048036038101906100cb919061146e565b610313565b6040516100dd919061152b565b60405180910390f35b3480156100f257600080fd5b5061010d60048036038101906101089190611682565b6103b3565b60405161011a9190611738565b60405180910390f35b34801561012f57600080fd5b5061014a6004803603810190610145919061146e565b610726565b604051610157919061152b565b60405180910390f35b34801561016c57600080fd5b50610187600480360381019061018291906117e7565b6107cb565b6040516101989594939291906118d8565b60405180910390f35b3480156101ad57600080fd5b506101c860048036038101906101c39190611940565b610a2d565b005b3480156101d657600080fd5b506101f160048036038101906101ec919061146e565b610a52565b6040516101ff9291906119ab565b60405180910390f35b34801561021457600080fd5b5061022f600480360381019061022a919061146e565b610b1e565b60405161023c91906119db565b60405180910390f35b34801561025157600080fd5b5061025a610c33565b6040516102679190611b9e565b60405180910390f35b34801561027c57600080fd5b506102976004803603810190610292919061146e565b610f14565b6040516102a49190611c44565b60405180910390f35b3480156102b957600080fd5b506102d460048036038101906102cf9190611c66565b6112d7565b005b3480156102e257600080fd5b506102fd60048036038101906102f89190611cd5565b61139a565b60405161030a9190611d02565b60405180910390f35b6002602052806000526040600020600091509050805461033290611d4c565b80601f016020809104026020016040519081016040528092919081815260200182805461035e90611d4c565b80156103ab5780601f10610380576101008083540402835291602001916103ab565b820191906000526020600020905b81548152906001019060200180831161038e57829003601f168201915b505050505081565b6000808451116103f8576040517f08c379a00000000000000000000000000000000000000000000000000000000081526004016103ef90611dc9565b60405180910390fd5b600083511161043c576040517f08c379a000000000000000000000000000000000000000000000000000000000815260040161043390611e35565b60405180910390fd5b6000825111610480576040517f08c379a000000000000000000000000000000000000000000000000000000000815260040161047790611ea1565b60405180910390fd5b600084848460405160200161049793929190611efd565b604051602081830303815290604052805190602001209050600060405180604001604052808781526020013373ffffffffffffffffffffffffffffffffffffffff16815250905060006040518060a0016040528084815260200183815260200187815260200186815260200160011515815250905060004290507fa9bac16c5dafcc86d75d6ed302c045921454f35a28042c50a5f014aa9685ea9b826000015183602001518460400151846040516105529493929190611f3d565b60405180910390a1600160003373ffffffffffffffffffffffffffffffffffffffff1673ffffffffffffffffffffffffffffffffffffffff1681526020019081526020016000208290806001815401808255809150506001900390600052602060002090600602016000909190919091506000820151816000015560208201518160010160008201518160000190816105eb919061213c565b5060208201518160010160006101000a81548173ffffffffffffffffffffffffffffffffffffffff021916908373ffffffffffffffffffffffffffffffffffffffff1602179055505050604082015181600301908161064a919061213c565b506060820151816004019081610660919061213c565b5060808201518160050160006101000a81548160ff0219169083151502179055505050856002600086815260200190815260200160002090816106a3919061213c565b50826003600086815260200190815260200160002060008201518160000190816106cd919061213c565b5060208201518160010160006101000a81548173ffffffffffffffffffffffffffffffffffffffff021916908373ffffffffffffffffffffffffffffffffffffffff160217905550905050839450505050509392505050565b606060026000838152602001908152602001600020805461074690611d4c565b80601f016020809104026020016040519081016040528092919081815260200182805461077290611d4c565b80156107bf5780601f10610794576101008083540402835291602001916107bf565b820191906000526020600020905b8154815290600101906020018083116107a257829003601f168201915b50505050509050919050565b600160205281600052604060002081815481106107e757600080fd5b9060005260206000209060060201600091509150508060000154908060010160405180604001604052908160008201805461082190611d4c565b80601f016020809104026020016040519081016040528092919081815260200182805461084d90611d4c565b801561089a5780601f1061086f5761010080835404028352916020019161089a565b820191906000526020600020905b81548152906001019060200180831161087d57829003601f168201915b505050505081526020016001820160009054906101000a900473ffffffffffffffffffffffffffffffffffffffff1673ffffffffffffffffffffffffffffffffffffffff1673ffffffffffffffffffffffffffffffffffffffff16815250509080600301805461090990611d4c565b80601f016020809104026020016040519081016040528092919081815260200182805461093590611d4c565b80156109825780601f1061095757610100808354040283529160200191610982565b820191906000526020600020905b81548152906001019060200180831161096557829003601f168201915b50505050509080600401805461099790611d4c565b80601f01602080910402602001604051908101604052809291908181526020018280546109c390611d4c565b8015610a105780601f106109e557610100808354040283529160200191610a10565b820191906000526020600020905b8154815290600101906020018083116109f357829003601f168201915b5050505050908060050160009054906101000a900460ff16905085565b80600260008481526020019081526020016000209081610a4d919061213c565b505050565b6003602052806000526040600020600091509050806000018054610a7590611d4c565b80601f0160208091040260200160405190810160405280929190818152602001828054610aa190611d4c565b8015610aee5780601f10610ac357610100808354040283529160200191610aee565b820191906000526020600020905b815481529060010190602001808311610ad157829003601f168201915b5050505050908060010160009054906101000a900473ffffffffffffffffffffffffffffffffffffffff16905082565b610b266113ba565b60036000838152602001908152602001600020604051806040016040529081600082018054610b5490611d4c565b80601f0160208091040260200160405190810160405280929190818152602001828054610b8090611d4c565b8015610bcd5780601f10610ba257610100808354040283529160200191610bcd565b820191906000526020600020905b815481529060010190602001808311610bb057829003601f168201915b505050505081526020016001820160009054906101000a900473ffffffffffffffffffffffffffffffffffffffff1673ffffffffffffffffffffffffffffffffffffffff1673ffffffffffffffffffffffffffffffffffffffff16815250509050919050565b6060600160003373ffffffffffffffffffffffffffffffffffffffff1673ffffffffffffffffffffffffffffffffffffffff168152602001908152602001600020805480602002602001604051908101604052809291908181526020016000905b82821015610f0b57838290600052602060002090600602016040518060a00160405290816000820154815260200160018201604051806040016040529081600082018054610ce190611d4c565b80601f0160208091040260200160405190810160405280929190818152602001828054610d0d90611d4c565b8015610d5a5780601f10610d2f57610100808354040283529160200191610d5a565b820191906000526020600020905b815481529060010190602001808311610d3d57829003601f168201915b505050505081526020016001820160009054906101000a900473ffffffffffffffffffffffffffffffffffffffff1673ffffffffffffffffffffffffffffffffffffffff1673ffffffffffffffffffffffffffffffffffffffff16815250508152602001600382018054610dcd90611d4c565b80601f0160208091040260200160405190810160405280929190818152602001828054610df990611d4c565b8015610e465780601f10610e1b57610100808354040283529160200191610e46565b820191906000526020600020905b815481529060010190602001808311610e2957829003601f168201915b50505050508152602001600482018054610e5f90611d4c565b80601f0160208091040260200160405190810160405280929190818152602001828054610e8b90611d4c565b8015610ed85780601f10610ead57610100808354040283529160200191610ed8565b820191906000526020600020905b815481529060010190602001808311610ebb57829003601f168201915b505050505081526020016005820160009054906101000a900460ff16151515158152505081526020019060010190610c94565b50505050905090565b610f1c6113ea565b60005b600160003373ffffffffffffffffffffffffffffffffffffffff1673ffffffffffffffffffffffffffffffffffffffff168152602001908152602001600020805490508110156112965782600160003373ffffffffffffffffffffffffffffffffffffffff1673ffffffffffffffffffffffffffffffffffffffff1681526020019081526020016000208281548110610fbb57610fba61220e565b5b9060005260206000209060060201600001540361128957600160003373ffffffffffffffffffffffffffffffffffffffff1673ffffffffffffffffffffffffffffffffffffffff16815260200190815260200160002081815481106110235761102261220e565b5b90600052602060002090600602016040518060a0016040529081600082015481526020016001820160405180604001604052908160008201805461106690611d4c565b80601f016020809104026020016040519081016040528092919081815260200182805461109290611d4c565b80156110df5780601f106110b4576101008083540402835291602001916110df565b820191906000526020600020905b8154815290600101906020018083116110c257829003601f168201915b505050505081526020016001820160009054906101000a900473ffffffffffffffffffffffffffffffffffffffff1673ffffffffffffffffffffffffffffffffffffffff1673ffffffffffffffffffffffffffffffffffffffff1681525050815260200160038201805461115290611d4c565b80601f016020809104026020016040519081016040528092919081815260200182805461117e90611d4c565b80156111cb5780601f106111a0576101008083540402835291602001916111cb565b820191906000526020600020905b8154815290600101906020018083116111ae57829003601f168201915b505050505081526020016004820180546111e490611d4c565b80601f016020809104026020016040519081016040528092919081815260200182805461121090611d4c565b801561125d5780601f106112325761010080835404028352916020019161125d565b820191906000526020600020905b81548152906001019060200180831161124057829003601f168201915b505050505081526020016005820160009054906101000a900460ff1615151515815250509150506112d2565b8080600101915050610f1f565b506040517f08c379a00000000000000000000000000000000000000000000000000000000081526004016112c990612289565b60405180910390fd5b919050565b6112df6113ba565b82816000018190525081816020019073ffffffffffffffffffffffffffffffffffffffff16908173ffffffffffffffffffffffffffffffffffffffff168152505080600360008681526020019081526020016000206000820151816000019081611349919061213c565b5060208201518160010160006101000a81548173ffffffffffffffffffffffffffffffffffffffff021916908373ffffffffffffffffffffffffffffffffffffffff16021790555090505050505050565b60006020528060005260406000206000915054906101000a900460ff1681565b604051806040016040528060608152602001600073ffffffffffffffffffffffffffffffffffffffff1681525090565b6040518060a00160405280600080191681526020016114076113ba565b815260200160608152602001606081526020016000151581525090565b6000604051905090565b600080fd5b600080fd5b6000819050919050565b61144b81611438565b811461145657600080fd5b50565b60008135905061146881611442565b92915050565b6000602082840312156114845761148361142e565b5b600061149284828501611459565b91505092915050565b600081519050919050565b600082825260208201905092915050565b60005b838110156114d55780820151818401526020810190506114ba565b60008484015250505050565b6000601f19601f8301169050919050565b60006114fd8261149b565b61150781856114a6565b93506115178185602086016114b7565b611520816114e1565b840191505092915050565b6000602082019050818103600083015261154581846114f2565b905092915050565b600080fd5b600080fd5b7f4e487b7100000000000000000000000000000000000000000000000000000000600052604160045260246000fd5b61158f826114e1565b810181811067ffffffffffffffff821117156115ae576115ad611557565b5b80604052505050565b60006115c1611424565b90506115cd8282611586565b919050565b600067ffffffffffffffff8211156115ed576115ec611557565b5b6115f6826114e1565b9050602081019050919050565b82818337600083830152505050565b6000611625611620846115d2565b6115b7565b90508281526020810184848401111561164157611640611552565b5b61164c848285611603565b509392505050565b600082601f8301126116695761166861154d565b5b8135611679848260208601611612565b91505092915050565b60008060006060848603121561169b5761169a61142e565b5b600084013567ffffffffffffffff8111156116b9576116b8611433565b5b6116c586828701611654565b935050602084013567ffffffffffffffff8111156116e6576116e5611433565b5b6116f286828701611654565b925050604084013567ffffffffffffffff81111561171357611712611433565b5b61171f86828701611654565b9150509250925092565b61173281611438565b82525050565b600060208201905061174d6000830184611729565b92915050565b600073ffffffffffffffffffffffffffffffffffffffff82169050919050565b600061177e82611753565b9050919050565b61178e81611773565b811461179957600080fd5b50565b6000813590506117ab81611785565b92915050565b6000819050919050565b6117c4816117b1565b81146117cf57600080fd5b50565b6000813590506117e1816117bb565b92915050565b600080604083850312156117fe576117fd61142e565b5b600061180c8582860161179c565b925050602061181d858286016117d2565b9150509250929050565b600082825260208201905092915050565b60006118438261149b565b61184d8185611827565b935061185d8185602086016114b7565b611866816114e1565b840191505092915050565b61187a81611773565b82525050565b6000604083016000830151848203600086015261189d8282611838565b91505060208301516118b26020860182611871565b508091505092915050565b60008115159050919050565b6118d2816118bd565b82525050565b600060a0820190506118ed6000830188611729565b81810360208301526118ff8187611880565b9050818103604083015261191381866114f2565b9050818103606083015261192781856114f2565b905061193660808301846118c9565b9695505050505050565b600080604083850312156119575761195661142e565b5b600061196585828601611459565b925050602083013567ffffffffffffffff81111561198657611985611433565b5b61199285828601611654565b9150509250929050565b6119a581611773565b82525050565b600060408201905081810360008301526119c581856114f2565b90506119d4602083018461199c565b9392505050565b600060208201905081810360008301526119f58184611880565b905092915050565b600081519050919050565b600082825260208201905092915050565b6000819050602082019050919050565b611a3281611438565b82525050565b60006040830160008301518482036000860152611a558282611838565b9150506020830151611a6a6020860182611871565b508091505092915050565b611a7e816118bd565b82525050565b600060a083016000830151611a9c6000860182611a29565b5060208301518482036020860152611ab48282611a38565b91505060408301518482036040860152611ace8282611838565b91505060608301518482036060860152611ae88282611838565b9150506080830151611afd6080860182611a75565b508091505092915050565b6000611b148383611a84565b905092915050565b6000602082019050919050565b6000611b34826119fd565b611b3e8185611a08565b935083602082028501611b5085611a19565b8060005b85811015611b8c5784840389528151611b6d8582611b08565b9450611b7883611b1c565b925060208a01995050600181019050611b54565b50829750879550505050505092915050565b60006020820190508181036000830152611bb88184611b29565b905092915050565b600060a083016000830151611bd86000860182611a29565b5060208301518482036020860152611bf08282611a38565b91505060408301518482036040860152611c0a8282611838565b91505060608301518482036060860152611c248282611838565b9150506080830151611c396080860182611a75565b508091505092915050565b60006020820190508181036000830152611c5e8184611bc0565b905092915050565b600080600060608486031215611c7f57611c7e61142e565b5b6000611c8d86828701611459565b935050602084013567ffffffffffffffff811115611cae57611cad611433565b5b611cba86828701611654565b9250506040611ccb8682870161179c565b9150509250925092565b600060208284031215611ceb57611cea61142e565b5b6000611cf98482850161179c565b91505092915050565b6000602082019050611d1760008301846118c9565b92915050565b7f4e487b7100000000000000000000000000000000000000000000000000000000600052602260045260246000fd5b60006002820490506001821680611d6457607f821691505b602082108103611d7757611d76611d1d565b5b50919050565b7f497373756572206e616d652063616e6e6f7420626520656d7074790000000000600082015250565b6000611db3601b836114a6565b9150611dbe82611d7d565b602082019050919050565b60006020820190508181036000830152611de281611da6565b9050919050565b7f53747564656e742049442063616e6e6f7420626520656d707479000000000000600082015250565b6000611e1f601a836114a6565b9150611e2a82611de9565b602082019050919050565b60006020820190508181036000830152611e4e81611e12565b9050919050565b7f4950465320686173682063616e6e6f7420626520656d70747900000000000000600082015250565b6000611e8b6019836114a6565b9150611e9682611e55565b602082019050919050565b60006020820190508181036000830152611eba81611e7e565b9050919050565b600081905092915050565b6000611ed78261149b565b611ee18185611ec1565b9350611ef18185602086016114b7565b80840191505092915050565b6000611f098286611ecc565b9150611f158285611ecc565b9150611f218284611ecc565b9150819050949350505050565b611f37816117b1565b82525050565b6000608082019050611f526000830187611729565b8181036020830152611f648186611880565b90508181036040830152611f7881856114f2565b9050611f876060830184611f2e565b95945050505050565b60008190508160005260206000209050919050565b60006020601f8301049050919050565b600082821b905092915050565b600060088302611ff27fffffffffffffffffffffffffffffffffffffffffffffffffffffffffffffffff82611fb5565b611ffc8683611fb5565b95508019841693508086168417925050509392505050565b6000819050919050565b600061203961203461202f846117b1565b612014565b6117b1565b9050919050565b6000819050919050565b6120538361201e565b61206761205f82612040565b848454611fc2565b825550505050565b600090565b61207c61206f565b61208781848461204a565b505050565b5b818110156120ab576120a0600082612074565b60018101905061208d565b5050565b601f8211156120f0576120c181611f90565b6120ca84611fa5565b810160208510156120d9578190505b6120ed6120e585611fa5565b83018261208c565b50505b505050565b600082821c905092915050565b6000612113600019846008026120f5565b1980831691505092915050565b600061212c8383612102565b9150826002028217905092915050565b6121458261149b565b67ffffffffffffffff81111561215e5761215d611557565b5b6121688254611d4c565b6121738282856120af565b600060209050601f8311600181146121a65760008415612194578287015190505b61219e8582612120565b865550612206565b601f1984166121b486611f90565b60005b828110156121dc578489015182556001820191506020850194506020810190506121b7565b868310156121f957848901516121f5601f891682612102565b8355505b6001600288020188555050505b505050505050565b7f4e487b7100000000000000000000000000000000000000000000000000000000600052603260045260246000fd5b7f43726564656e7469616c206e6f7420666f756e64000000000000000000000000600082015250565b60006122736014836114a6565b915061227e8261223d565b602082019050919050565b600060208201905081810360008301526122a281612266565b905091905056fea26469706673582212205d9c87fd3290c874a9f1741a6fb09878f449822e9136e3b92142b0d527bbfe7464736f6c63430008180033",
  "linkReferences": {},
  "deployedLinkReferences": {}
}